{
  "contractName": "ZombieAttack",
  "abi": [
    {
      "anonymous": false,
      "inputs": [
        {
          "indexed": false,
          "internalType": "uint256",
          "name": "zombieId",
          "type": "uint256"
        },
        {
          "indexed": false,
          "internalType": "string",
          "name": "name",
          "type": "string"
        },
        {
          "indexed": false,
          "internalType": "uint256",
          "name": "dna",
          "type": "uint256"
        }
      ],
      "name": "NewZombie",
      "type": "event"
    },
    {
      "anonymous": false,
      "inputs": [
        {
          "indexed": true,
          "internalType": "address",
          "name": "previousOwner",
          "type": "address"
        },
        {
          "indexed": true,
          "internalType": "address",
          "name": "newOwner",
          "type": "address"
        }
      ],
      "name": "OwnershipTransferred",
      "type": "event"
    },
    {
      "inputs": [
        {
          "internalType": "uint256",
          "name": "_zombieId",
          "type": "uint256"
        },
        {
          "internalType": "uint256",
          "name": "_newDna",
          "type": "uint256"
        }
      ],
      "name": "changeDna",
      "outputs": [],
      "stateMutability": "nonpayable",
      "type": "function"
    },
    {
      "inputs": [
        {
          "internalType": "uint256",
          "name": "_zombieId",
          "type": "uint256"
        },
        {
          "internalType": "string",
          "name": "_newName",
          "type": "string"
        }
      ],
      "name": "changeName",
      "outputs": [],
      "stateMutability": "nonpayable",
      "type": "function"
    },
    {
      "inputs": [
        {
          "internalType": "string",
          "name": "_name",
          "type": "string"
        }
      ],
      "name": "createRandomZombie",
      "outputs": [],
      "stateMutability": "nonpayable",
      "type": "function"
    },
    {
      "inputs": [
        {
          "internalType": "uint256",
          "name": "_zombieId",
          "type": "uint256"
        },
        {
          "internalType": "uint256",
          "name": "_kittyId",
          "type": "uint256"
        }
      ],
      "name": "feedOnKitty",
      "outputs": [],
      "stateMutability": "nonpayable",
      "type": "function"
    },
    {
      "inputs": [
        {
          "internalType": "address",
          "name": "_owner",
          "type": "address"
        }
      ],
      "name": "getZombiesByOwner",
      "outputs": [
        {
          "internalType": "uint256[]",
          "name": "",
          "type": "uint256[]"
        }
      ],
      "stateMutability": "view",
      "type": "function"
    },
    {
      "inputs": [],
      "name": "isOwner",
      "outputs": [
        {
          "internalType": "bool",
          "name": "",
          "type": "bool"
        }
      ],
      "stateMutability": "view",
      "type": "function"
    },
    {
      "inputs": [
        {
          "internalType": "uint256",
          "name": "_zombieId",
          "type": "uint256"
        }
      ],
      "name": "levelUp",
      "outputs": [],
      "stateMutability": "payable",
      "type": "function"
    },
    {
      "inputs": [],
      "name": "owner",
      "outputs": [
        {
          "internalType": "address",
          "name": "",
          "type": "address"
        }
      ],
      "stateMutability": "view",
      "type": "function"
    },
    {
      "inputs": [],
      "name": "renounceOwnership",
      "outputs": [],
      "stateMutability": "nonpayable",
      "type": "function"
    },
    {
      "inputs": [
        {
          "internalType": "address",
          "name": "_address",
          "type": "address"
        }
      ],
      "name": "setKittyContractAddress",
      "outputs": [],
      "stateMutability": "nonpayable",
      "type": "function"
    },
    {
      "inputs": [
        {
          "internalType": "uint256",
          "name": "_fee",
          "type": "uint256"
        }
      ],
      "name": "setLevelUpFee",
      "outputs": [],
      "stateMutability": "nonpayable",
      "type": "function"
    },
    {
      "inputs": [
        {
          "internalType": "address",
          "name": "newOwner",
          "type": "address"
        }
      ],
      "name": "transferOwnership",
      "outputs": [],
      "stateMutability": "nonpayable",
      "type": "function"
    },
    {
      "inputs": [],
      "name": "withdraw",
      "outputs": [],
      "stateMutability": "nonpayable",
      "type": "function"
    },
    {
      "inputs": [
        {
          "internalType": "uint256",
          "name": "",
          "type": "uint256"
        }
      ],
      "name": "zombieToOwner",
      "outputs": [
        {
          "internalType": "address",
          "name": "",
          "type": "address"
        }
      ],
      "stateMutability": "view",
      "type": "function"
    },
    {
      "inputs": [
        {
          "internalType": "uint256",
          "name": "",
          "type": "uint256"
        }
      ],
      "name": "zombies",
      "outputs": [
        {
          "internalType": "string",
          "name": "name",
          "type": "string"
        },
        {
          "internalType": "uint256",
          "name": "dna",
          "type": "uint256"
        },
        {
          "internalType": "uint32",
          "name": "level",
          "type": "uint32"
        },
        {
          "internalType": "uint32",
          "name": "readyTime",
          "type": "uint32"
        },
        {
          "internalType": "uint16",
          "name": "winCount",
          "type": "uint16"
        },
        {
          "internalType": "uint16",
          "name": "lossCount",
          "type": "uint16"
        }
      ],
      "stateMutability": "view",
      "type": "function"
    },
    {
      "inputs": [
        {
          "internalType": "uint256",
          "name": "_zombieId",
          "type": "uint256"
        },
        {
          "internalType": "uint256",
          "name": "_targetId",
          "type": "uint256"
        }
      ],
      "name": "attack",
      "outputs": [],
      "stateMutability": "nonpayable",
      "type": "function"
    }
  ],
  "bytecode": "0x60806040526010600155600154600a6200001a919062000295565b6002556201518060035566038d7ea4c6800060085560006009556046600a553480156200004657600080fd5b50336000806101000a81548173ffffffffffffffffffffffffffffffffffffffff021916908373ffffffffffffffffffffffffffffffffffffffff16021790555060008054906101000a900473ffffffffffffffffffffffffffffffffffffffff1673ffffffffffffffffffffffffffffffffffffffff16600073ffffffffffffffffffffffffffffffffffffffff167f8be0079c531659141344cd1fd0a4f28419497f9722a3daafe3b4186f6b6457e060405160405180910390a3620002e6565b7f4e487b7100000000000000000000000000000000000000000000000000000000600052601160045260246000fd5b60008160011c9050919050565b6000808291508390505b600185111562000196578086048111156200016e576200016d62000108565b5b60018516156200017e5780820291505b80810290506200018e8562000137565b94506200014e565b94509492505050565b600082620001b1576001905062000284565b81620001c1576000905062000284565b8160018114620001da5760028114620001e5576200021b565b600191505062000284565b60ff841115620001fa57620001f962000108565b5b8360020a91508482111562000214576200021362000108565b5b5062000284565b5060208310610133831016604e8410600b8410161715620002555782820a9050838111156200024f576200024e62000108565b5b62000284565b62000264848484600162000144565b925090508184048111156200027e576200027d62000108565b5b81810290505b9392505050565b6000819050919050565b6000620002a2826200028b565b9150620002af836200028b565b9250620002de7fffffffffffffffffffffffffffffffffffffffffffffffffffffffffffffffff84846200019f565b905092915050565b61217c80620002f66000396000f3fe6080604052600436106100f35760003560e01c8063715018a61161008a578063c39cbef111610059578063c39cbef1146102f8578063ccf670f814610321578063e1fa76381461034a578063f2fde38b14610373576100f3565b8063715018a6146102625780637bff0a01146102795780638da5cb5b146102a25780638f32d59b146102cd576100f3565b80634412e104116100c65780634412e10414610196578063528b7b8f146101d35780635f4623f1146102105780635faf288014610239576100f3565b80630ce90ec2146100f857806317a7f4cc146101145780632052465e1461013d5780633ccfd60b1461017f575b600080fd5b610112600480360381019061010d919061169a565b61039c565b005b34801561012057600080fd5b5061013b600480360381019061013691906116c7565b610453565b005b34801561014957600080fd5b50610164600480360381019061015f919061169a565b610571565b604051610176969594939291906117eb565b60405180910390f35b34801561018b57600080fd5b50610194610681565b005b3480156101a257600080fd5b506101bd60048036038101906101b891906118b1565b6106e8565b6040516101ca919061199c565b60405180910390f35b3480156101df57600080fd5b506101fa60048036038101906101f5919061169a565b61083b565b60405161020791906119cd565b60405180910390f35b34801561021c57600080fd5b50610237600480360381019061023291906118b1565b61086e565b005b34801561024557600080fd5b50610260600480360381019061025b91906116c7565b6108c3565b005b34801561026e57600080fd5b506102776109ab565b005b34801561028557600080fd5b506102a0600480360381019061029b9190611b1d565b610a7a565b005b3480156102ae57600080fd5b506102b7610afb565b6040516102c491906119cd565b60405180910390f35b3480156102d957600080fd5b506102e2610b24565b6040516102ef9190611b81565b60405180910390f35b34801561030457600080fd5b5061031f600480360381019061031a9190611b9c565b610b7b565b005b34801561032d57600080fd5b506103486004803603810190610343919061169a565b610c73565b005b34801561035657600080fd5b50610371600480360381019061036c91906116c7565b610c8e565b005b34801561037f57600080fd5b5061039a600480360381019061039591906118b1565b610f84565b005b60085434146103aa57600080fd5b600481815481106103be576103bd611bf8565b5b9060005260206000209060030201600201600081819054906101000a900463ffffffff16809291906103ef90611c56565b91906101000a81548163ffffffff021916908363ffffffff1602179055506004828154811061042157610420611bf8565b5b906000526020600020906003020160020160006101000a81548163ffffffff021916908363ffffffff16021790555050565b6000600760009054906101000a900473ffffffffffffffffffffffffffffffffffffffff1673ffffffffffffffffffffffffffffffffffffffff1663e98b7f4d836040518263ffffffff1660e01b81526004016104b09190611c83565b61014060405180830381865afa1580156104ce573d6000803e3d6000fd5b505050506040513d601f19601f820116820180604052508101906104f29190611cdf565b9091929394959697985090919293949596975090919293949596509091929394955090919293945090919293509091925090915090508091505061056c83826040518060400160405280600581526020017f6b69747479000000000000000000000000000000000000000000000000000000815250610fa1565b505050565b6004818154811061058157600080fd5b90600052602060002090600302016000915090508060000180546105a490611ded565b80601f01602080910402602001604051908101604052809291908181526020018280546105d090611ded565b801561061d5780601f106105f25761010080835404028352916020019161061d565b820191906000526020600020905b81548152906001019060200180831161060057829003601f168201915b5050505050908060010154908060020160009054906101000a900463ffffffff16908060020160049054906101000a900463ffffffff16908060020160089054906101000a900461ffff169080600201600a9054906101000a900461ffff16905086565b610689610b24565b61069257600080fd5b600061069c610afb565b90508073ffffffffffffffffffffffffffffffffffffffff166108fc479081150290604051600060405180830381858888f193505050501580156106e4573d6000803e3d6000fd5b5050565b60606000600660008473ffffffffffffffffffffffffffffffffffffffff1673ffffffffffffffffffffffffffffffffffffffff1681526020019081526020016000205467ffffffffffffffff811115610745576107446119f2565b5b6040519080825280602002602001820160405280156107735781602001602082028036833780820191505090505b5090506000805b600480549050811015610830578473ffffffffffffffffffffffffffffffffffffffff166005600083815260200190815260200160002060009054906101000a900473ffffffffffffffffffffffffffffffffffffffff1673ffffffffffffffffffffffffffffffffffffffff16141561081d578083838151811061080257610801611bf8565b5b602002602001018181525050818061081990611e1f565b9250505b808061082890611e1f565b91505061077a565b508192505050919050565b60056020528060005260406000206000915054906101000a900473ffffffffffffffffffffffffffffffffffffffff1681565b610876610b24565b61087f57600080fd5b80600760006101000a81548173ffffffffffffffffffffffffffffffffffffffff021916908373ffffffffffffffffffffffffffffffffffffffff16021790555050565b60148281600482815481106108db576108da611bf8565b5b906000526020600020906003020160020160009054906101000a900463ffffffff1663ffffffff16101561090e57600080fd5b836005600082815260200190815260200160002060009054906101000a900473ffffffffffffffffffffffffffffffffffffffff1673ffffffffffffffffffffffffffffffffffffffff163373ffffffffffffffffffffffffffffffffffffffff161461097a57600080fd5b836004868154811061098f5761098e611bf8565b5b9060005260206000209060030201600101819055505050505050565b6109b3610b24565b6109bc57600080fd5b600073ffffffffffffffffffffffffffffffffffffffff1660008054906101000a900473ffffffffffffffffffffffffffffffffffffffff1673ffffffffffffffffffffffffffffffffffffffff167f8be0079c531659141344cd1fd0a4f28419497f9722a3daafe3b4186f6b6457e060405160405180910390a360008060006101000a81548173ffffffffffffffffffffffffffffffffffffffff021916908373ffffffffffffffffffffffffffffffffffffffff160217905550565b6000600660003373ffffffffffffffffffffffffffffffffffffffff1673ffffffffffffffffffffffffffffffffffffffff1681526020019081526020016000205414610ac657600080fd5b6000610ad18261113e565b9050606481610ae09190611e97565b81610aeb9190611ec8565b9050610af78282611183565b5050565b60008060009054906101000a900473ffffffffffffffffffffffffffffffffffffffff16905090565b60008060009054906101000a900473ffffffffffffffffffffffffffffffffffffffff1673ffffffffffffffffffffffffffffffffffffffff163373ffffffffffffffffffffffffffffffffffffffff1614905090565b6002828160048281548110610b9357610b92611bf8565b5b906000526020600020906003020160020160009054906101000a900463ffffffff1663ffffffff161015610bc657600080fd5b836005600082815260200190815260200160002060009054906101000a900473ffffffffffffffffffffffffffffffffffffffff1673ffffffffffffffffffffffffffffffffffffffff163373ffffffffffffffffffffffffffffffffffffffff1614610c3257600080fd5b8360048681548110610c4757610c46611bf8565b5b90600052602060002090600302016000019080519060200190610c6b9291906115ad565b505050505050565b610c7b610b24565b610c8457600080fd5b8060088190555050565b816005600082815260200190815260200160002060009054906101000a900473ffffffffffffffffffffffffffffffffffffffff1673ffffffffffffffffffffffffffffffffffffffff163373ffffffffffffffffffffffffffffffffffffffff1614610cfa57600080fd5b600060048481548110610d1057610d0f611bf8565b5b90600052602060002090600302019050600060048481548110610d3657610d35611bf8565b5b906000526020600020906003020190506000610d5260646113fb565b9050600a548111610ebe5782600201600881819054906101000a900461ffff1680929190610d7f90611efc565b91906101000a81548161ffff021916908361ffff1602179055508360020160086101000a81548161ffff021916908361ffff16021790555082600201600081819054906101000a900463ffffffff1680929190610ddb90611c56565b91906101000a81548163ffffffff021916908363ffffffff1602179055508360020160006101000a81548163ffffffff021916908363ffffffff16021790555081600201600a81819054906101000a900461ffff1680929190610e3d90611efc565b91906101000a81548161ffff021916908361ffff16021790555082600201600a6101000a81548161ffff021916908361ffff160217905550610eb98683600101546040518060400160405280600681526020017f7a6f6d6269650000000000000000000000000000000000000000000000000000815250610fa1565b610f7c565b82600201600a81819054906101000a900461ffff1680929190610ee090611efc565b91906101000a81548161ffff021916908361ffff16021790555083600201600a6101000a81548161ffff021916908361ffff16021790555081600201600881819054906101000a900461ffff1680929190610f3a90611efc565b91906101000a81548161ffff021916908361ffff1602179055508260020160086101000a81548161ffff021916908361ffff160217905550610f7b8361145c565b5b505050505050565b610f8c610b24565b610f9557600080fd5b610f9e8161148f565b50565b826005600082815260200190815260200160002060009054906101000a900473ffffffffffffffffffffffffffffffffffffffff1673ffffffffffffffffffffffffffffffffffffffff163373ffffffffffffffffffffffffffffffffffffffff161461100d57600080fd5b60006004858154811061102357611022611bf8565b5b9060005260206000209060030201905061103c81611586565b61104557600080fd5b600254846110539190611e97565b9350600060028583600101546110699190611f27565b6110739190611f7d565b905060405160200161108490612005565b60405160208183030381529060405280519060200120846040516020016110ab919061204b565b6040516020818303038152906040528051906020012014156110ee5760636064826110d69190611e97565b826110e19190611ec8565b6110eb9190611f27565b90505b61112d6040518060400160405280600681526020017f4e6f4e616d65000000000000000000000000000000000000000000000000000081525082611183565b6111368261145c565b505050505050565b60008082604051602001611152919061204b565b6040516020818303038152906040528051906020012060001c90506002548161117b9190611e97565b915050919050565b60046040518060c00160405280848152602001838152602001600163ffffffff168152602001600354426111b79190611f27565b63ffffffff168152602001600061ffff168152602001600061ffff168152509080600181540180825580915050600190039060005260206000209060030201600090919091909150600082015181600001908051906020019061121b9291906115ad565b506020820151816001015560408201518160020160006101000a81548163ffffffff021916908363ffffffff16021790555060608201518160020160046101000a81548163ffffffff021916908363ffffffff16021790555060808201518160020160086101000a81548161ffff021916908361ffff16021790555060a082015181600201600a6101000a81548161ffff021916908361ffff1602179055505050600060016004805490506112d09190611ec8565b9050336005600083815260200190815260200160002060006101000a81548173ffffffffffffffffffffffffffffffffffffffff021916908373ffffffffffffffffffffffffffffffffffffffff160217905550600660003373ffffffffffffffffffffffffffffffffffffffff1673ffffffffffffffffffffffffffffffffffffffff168152602001908152602001600020600081548092919061137490611e1f565b91905055600660003373ffffffffffffffffffffffffffffffffffffffff1673ffffffffffffffffffffffffffffffffffffffff168152602001908152602001600020819055507f88f026aacbbecc90c18411df4b1185fd8d9be2470f1962f192bf84a27d0704b78184846040516113ee93929190612062565b60405180910390a1505050565b60006009600081548092919061141090611e1f565b9190505560098190555081423360095460405160200161143293929190612109565b6040516020818303038152906040528051906020012060001c6114559190611e97565b9050919050565b6003544261146a9190611f27565b8160020160046101000a81548163ffffffff021916908363ffffffff16021790555050565b600073ffffffffffffffffffffffffffffffffffffffff168173ffffffffffffffffffffffffffffffffffffffff1614156114c957600080fd5b8073ffffffffffffffffffffffffffffffffffffffff1660008054906101000a900473ffffffffffffffffffffffffffffffffffffffff1673ffffffffffffffffffffffffffffffffffffffff167f8be0079c531659141344cd1fd0a4f28419497f9722a3daafe3b4186f6b6457e060405160405180910390a3806000806101000a81548173ffffffffffffffffffffffffffffffffffffffff021916908373ffffffffffffffffffffffffffffffffffffffff16021790555050565b6000428260020160049054906101000a900463ffffffff1663ffffffff1611159050919050565b8280546115b990611ded565b90600052602060002090601f0160209004810192826115db5760008555611622565b82601f106115f457805160ff1916838001178555611622565b82800160010185558215611622579182015b82811115611621578251825591602001919060010190611606565b5b50905061162f9190611633565b5090565b5b8082111561164c576000816000905550600101611634565b5090565b6000604051905090565b600080fd5b600080fd5b6000819050919050565b61167781611664565b811461168257600080fd5b50565b6000813590506116948161166e565b92915050565b6000602082840312156116b0576116af61165a565b5b60006116be84828501611685565b91505092915050565b600080604083850312156116de576116dd61165a565b5b60006116ec85828601611685565b92505060206116fd85828601611685565b9150509250929050565b600081519050919050565b600082825260208201905092915050565b60005b83811015611741578082015181840152602081019050611726565b83811115611750576000848401525b50505050565b6000601f19601f8301169050919050565b600061177282611707565b61177c8185611712565b935061178c818560208601611723565b61179581611756565b840191505092915050565b6117a981611664565b82525050565b600063ffffffff82169050919050565b6117c8816117af565b82525050565b600061ffff82169050919050565b6117e5816117ce565b82525050565b600060c08201905081810360008301526118058189611767565b905061181460208301886117a0565b61182160408301876117bf565b61182e60608301866117bf565b61183b60808301856117dc565b61184860a08301846117dc565b979650505050505050565b600073ffffffffffffffffffffffffffffffffffffffff82169050919050565b600061187e82611853565b9050919050565b61188e81611873565b811461189957600080fd5b50565b6000813590506118ab81611885565b92915050565b6000602082840312156118c7576118c661165a565b5b60006118d58482850161189c565b91505092915050565b600081519050919050565b600082825260208201905092915050565b6000819050602082019050919050565b61191381611664565b82525050565b6000611925838361190a565b60208301905092915050565b6000602082019050919050565b6000611949826118de565b61195381856118e9565b935061195e836118fa565b8060005b8381101561198f5781516119768882611919565b975061198183611931565b925050600181019050611962565b5085935050505092915050565b600060208201905081810360008301526119b6818461193e565b905092915050565b6119c781611873565b82525050565b60006020820190506119e260008301846119be565b92915050565b600080fd5b600080fd5b7f4e487b7100000000000000000000000000000000000000000000000000000000600052604160045260246000fd5b611a2a82611756565b810181811067ffffffffffffffff82111715611a4957611a486119f2565b5b80604052505050565b6000611a5c611650565b9050611a688282611a21565b919050565b600067ffffffffffffffff821115611a8857611a876119f2565b5b611a9182611756565b9050602081019050919050565b82818337600083830152505050565b6000611ac0611abb84611a6d565b611a52565b905082815260208101848484011115611adc57611adb6119ed565b5b611ae7848285611a9e565b509392505050565b600082601f830112611b0457611b036119e8565b5b8135611b14848260208601611aad565b91505092915050565b600060208284031215611b3357611b3261165a565b5b600082013567ffffffffffffffff811115611b5157611b5061165f565b5b611b5d84828501611aef565b91505092915050565b60008115159050919050565b611b7b81611b66565b82525050565b6000602082019050611b966000830184611b72565b92915050565b60008060408385031215611bb357611bb261165a565b5b6000611bc185828601611685565b925050602083013567ffffffffffffffff811115611be257611be161165f565b5b611bee85828601611aef565b9150509250929050565b7f4e487b7100000000000000000000000000000000000000000000000000000000600052603260045260246000fd5b7f4e487b7100000000000000000000000000000000000000000000000000000000600052601160045260246000fd5b6000611c61826117af565b915063ffffffff821415611c7857611c77611c27565b5b600182019050919050565b6000602082019050611c9860008301846117a0565b92915050565b611ca781611b66565b8114611cb257600080fd5b50565b600081519050611cc481611c9e565b92915050565b600081519050611cd98161166e565b92915050565b6000806000806000806000806000806101408b8d031215611d0357611d0261165a565b5b6000611d118d828e01611cb5565b9a50506020611d228d828e01611cb5565b9950506040611d338d828e01611cca565b9850506060611d448d828e01611cca565b9750506080611d558d828e01611cca565b96505060a0611d668d828e01611cca565b95505060c0611d778d828e01611cca565b94505060e0611d888d828e01611cca565b935050610100611d9a8d828e01611cca565b925050610120611dac8d828e01611cca565b9150509295989b9194979a5092959850565b7f4e487b7100000000000000000000000000000000000000000000000000000000600052602260045260246000fd5b60006002820490506001821680611e0557607f821691505b60208210811415611e1957611e18611dbe565b5b50919050565b6000611e2a82611664565b91507fffffffffffffffffffffffffffffffffffffffffffffffffffffffffffffffff821415611e5d57611e5c611c27565b5b600182019050919050565b7f4e487b7100000000000000000000000000000000000000000000000000000000600052601260045260246000fd5b6000611ea282611664565b9150611ead83611664565b925082611ebd57611ebc611e68565b5b828206905092915050565b6000611ed382611664565b9150611ede83611664565b925082821015611ef157611ef0611c27565b5b828203905092915050565b6000611f07826117ce565b915061ffff821415611f1c57611f1b611c27565b5b600182019050919050565b6000611f3282611664565b9150611f3d83611664565b9250827fffffffffffffffffffffffffffffffffffffffffffffffffffffffffffffffff03821115611f7257611f71611c27565b5b828201905092915050565b6000611f8882611664565b9150611f9383611664565b925082611fa357611fa2611e68565b5b828204905092915050565b600081905092915050565b7f6b69747479000000000000000000000000000000000000000000000000000000600082015250565b6000611fef600583611fae565b9150611ffa82611fb9565b600582019050919050565b600061201082611fe2565b9150819050919050565b600061202582611707565b61202f8185611fae565b935061203f818560208601611723565b80840191505092915050565b6000612057828461201a565b915081905092915050565b600060608201905061207760008301866117a0565b81810360208301526120898185611767565b905061209860408301846117a0565b949350505050565b6000819050919050565b6120bb6120b682611664565b6120a0565b82525050565b60008160601b9050919050565b60006120d9826120c1565b9050919050565b60006120eb826120ce565b9050919050565b6121036120fe82611873565b6120e0565b82525050565b600061211582866120aa565b60208201915061212582856120f2565b60148201915061213582846120aa565b60208201915081905094935050505056fea2646970667358221220e6fd48f365b55824850263bc361063daaa771a87673ed9ec38462b081657d54a64736f6c634300080a0033",
  "immutableReferences": {},
  "source": "//SPDX-License-Identifier: GPL-3.0\npragma solidity ^0.8.10;\n\nimport \"./zombiehelper.sol\";\n\ncontract ZombieAttack is ZombieHelper {\n  uint randNonce = 0;\n  uint attackVictoryProbability = 70;\n\n  function randMod(uint _modulus) internal returns(uint) {\n    randNonce = randNonce++;\n    return uint(keccak256(abi.encodePacked(block.timestamp, msg.sender, randNonce))) % _modulus;\n  }\n\n  function attack(uint _zombieId, uint _targetId) external onlyOwnerOf(_zombieId) {\n    Zombie storage myZombie = zombies[_zombieId];\n    Zombie storage enemyZombie = zombies[_targetId];\n    uint rand = randMod(100);\n    if (rand <= attackVictoryProbability) {\n      myZombie.winCount = myZombie.winCount++;\n      myZombie.level = myZombie.level++;\n      enemyZombie.lossCount = enemyZombie.lossCount++;\n      feedAndMultiply(_zombieId, enemyZombie.dna, \"zombie\");\n    } else {\n      myZombie.lossCount = myZombie.lossCount++;\n      enemyZombie.winCount = enemyZombie.winCount++;\n      _triggerCooldown(myZombie);\n    }\n  }\n}\n",
  "sourcePath": "I:\\pinchas\\blockchain\\CryptoZombies-project\\contracts\\zombieattack.sol",
  "compiler": {
    "name": "solc",
    "version": "0.8.10+commit.fc410830.Emscripten.clang"
  },
  "schemaVersion": "3.4.3",
  "updatedAt": "2021-12-10T00:31:29.957Z",
  "devdoc": {
    "kind": "dev",
    "methods": {
      "isOwner()": {
        "returns": {
          "_0": "true if `msg.sender` is the owner of the contract."
        }
      },
      "owner()": {
        "returns": {
          "_0": "the address of the owner."
        }
      },
      "renounceOwnership()": {
        "details": "Allows the current owner to relinquish control of the contract."
      },
      "transferOwnership(address)": {
        "details": "Allows the current owner to transfer control of the contract to a newOwner.",
        "params": {
          "newOwner": "The address to transfer ownership to."
        }
      }
    },
    "version": 1
  },
  "userdoc": {
    "kind": "user",
    "methods": {
      "renounceOwnership()": {
        "notice": "Renouncing to ownership will leave the contract without an owner. It will not be possible to call the functions with the `onlyOwner` modifier anymore."
      }
    },
    "version": 1
  }
}